:1010000080B100208DA600009178010079A6000033
:1010100079A6000079A6000079A600000000000073
:1010200000000000000000000000000029A80000EF
:1010300079A600000000000095A7000079A6000036
:10104000E5AA0000A9F30000E5AA0000E5AA000057
:10105000E5AA0000E5AA0000E5AA0000E5AA000054
:10106000E5AA00006920010079200100E5AA00003E
:10107000E5AA0000E5AA0000E5AA0000E5AA000034
:10108000E5AA0000E5AA0000E5AA0000E5AA000024
:101090000DF40000E5AA0000E5AA0000E5AA0000A2
:1010A000E5AA0000E5AA0000E5AA0000E5AA000004
:1010B000E5AA0000E5AA0000E5AA0000E5AA0000F4
:1010C000E5AA0000E5AA0000E5AA0000E5AA0000E4
:1010D000E5AA0000E5AA0000E5AA0000E5AA0000D4
:1010E000E5AA0000E5AA0000E5AA0000E5AA0000C4
:1010F000E5AA0000E5AA0000E5AA0000E5AA0000B4
:1011000018B1034B1860002070474FF0FF30704754
:1011100000050020014B1B685B6818470005002094
:10112000014B1B689B68184700050020014B1B689A
:101130001B69184700050020014B1B685B691847B5
:1011400000050020014B1B689B6918470005002023
:10115000014B1B68DB69184700050020014B1B6829
:101160001B6A184700050020014B1B689B6A184743
:101170000005002030B4044C9DF808502468029506
:10118000E468A44630BC604700050020014B18709D
:10119000704700BFD00F0020914208B503B20AD0BB
:1011A000072804D940F2CA31074800F0C1FA980074
:1011B0006030C0B208BD072802D940F2C231F3E75F
:1011C00098003030F5E700BF5ABA0100F8B50B7A45
:1011D0000022C0E9002205460E46A3B31A4B036065
:1011E0008C7A04714F7A20463946FFF7D5FF0122E9
:1011F000687139462046FFF7CFFFA871A0007379C8
:10120000327900F1804000F5C04003F01F0343EA4B
:101210004213D0F8102522F4991222F4F852C0F8A3
:101220001025D0F8102587F001071B0242EA07526B
:1012300003F47C531343C0F81035D0F8103543F055
:101240000303C0F81035F8BD00600040024B186879
:10125000003818BF01207047D40F002010B49DF84B
:1012600004400194024C2468A4465DF8044B604796
:10127000D40F0020024B5B6803B11847704700BFD2
:10128000D40F002000220F4938B50446134644FA13
:1012900002F0C007D5B248BF581C02F1010244BF9A
:1012A000CD54C3B2042AF2D1064DC3F10402042B7B
:1012B000D2B24FF0FF0188BF0022E81800F0C2FA56
:1012C0002C7138BDDC0F002038B5054D2B798342D9
:1012D0000C4601D1285D38BDFFF7D4FFFAE700BF07
:1012E000DC0F002090F83030FF2B10B515D00B4CE0
:1012F00001229A40C4F80825DA0002F1804202F582
:10130000F83203F511730021C2F81015C2F8141554
:1013100044F82310FF2380F8303010BD00F0014066
:101320002DE9F84399460546089B18B943216720E3
:1013300000F008FA007DA8B36E7DFF2E01D1472191
:10134000F5E793F83000FF2820D183F830600A4495
:101350002F7853790A6834B202EB03086FB3012F78
:101360004ED1E20002F1804202F5F8322549D2F86E
:101370001435E3B106F5117341F82380012303FA14
:1013800006F6C1F804650020BDE8F883864206D160
:101390001C4806F5117350F82330002BD7D06FF09E
:1013A0001500F1E70AB11E7FD1E75E7FCFE76B68DA
:1013B000C2F81035C2F81485E0E7287C08B9752119
:1013C000B5E73946FFF780FFE200696802F1804225
:1013D00000F1500302F5F83201EB8303C2F8103537
:1013E000012303FA06F6074BC2F81485C3F8046517
:1013F000EB6800F5A870A3EB090341F82030C2E7C1
:10140000892194E700F0014010B518B996216720B2
:1014100000F098F9037DC3B1437D0F4C01229A403F
:10142000C4F80825DA0002F1804202F5F83203F52B
:1014300011730021C2F81015C2F8141544F82310D6
:101440000378012B06D9AC21E1E709B1137FE4E76A
:10145000537FE2E7084610BD00F00140017FCA005B
:1014600070B402F18042124C012505FA01F302F535
:10147000F83201F51171C4F808350023C2F81035AF
:10148000C2F8143544F82130417FCA0002F180428D
:101490008D4002F5F83201F51171C4F80855C2F813
:1014A0001035C2F8143544F8213070BCFFF71ABF6C
:1014B00000F00140836B10B50446DBB190F84C306E
:1014C0000E4A02EBC301012003F5007348600021BE
:1014D00042F8231004F134002246FFF795FF20B1B3
:1014E0004FF4CE71672000F02DF9FF2384F84C30C3
:1014F000A06310BD4FF0FF30FBE700BF00F00140DC
:101500000148FFF7D7BF00BFE40F0020014A00F0F9
:1015100077BF00BFE40F00200148FFF79FBF00BF67
:10152000E40F0020014800F04FBF00BFE40F00208F
:10153000014800F02DBF00BFE40F0020014A00F079
:1015400005BF00BFE40F0020014A00F0DDBE00BF70
:10155000E40F002030B585B0CDE902219DF8205080
:1015600001930446FFF772FE039940B1DDE90132B1
:101570002046089505B0BDE8304000F080BE054A21
:1015800092F908202B46204605B0BDE8304000F017
:1015900066BE00BFE40F0020084B5A6910B522B1A7
:1015A000C40742BF597E01245450DA6822B1810732
:1015B00042BF5B7C0121D15010BD00BFE40F002071
:1015C000034AD3680BB192F909300370704700BF2A
:1015D000E40F0020074B1A6A4AB95A6A3AB99A6A64
:1015E0002AB9D86A003818BF0120404270474FF02E
:1015F000FF307047E40F002008B50146044800F0B2
:101600002AFF20B9BDE808400248FFF779BD08BDB0
:10161000E40F00204405002030B50246114890F93F
:101620001C3093421ADD90F92430934218DAD31A11
:10163000856A0D4CE85C235693420ED00E34002987
:101640000CBF0346431CA542D8B206D129B1013ACA
:10165000D2B2012A01D80130C0B230BD0D20FCE762
:101660000020FAE7B00A0020548A010008B5054BB3
:1016700093F91C30984203DAFFF7CEFF024B1B565A
:10168000184608BDB00A0020548A010010B51C4C51
:1016900094F82C3073B9012384F82C3000F0A8F8AA
:1016A00048B1184BA362D823236284F8243008235E
:1016B000A361237710BD00F0B1F80028F1D100F04C
:1016C000B7F80028EDD100F075F838B10E4BA362E1
:1016D000D823236284F824300423E9E700F074F867
:1016E0000028F3D100F07AF80028EFD100F08AF852
:1016F0000028EBD140F2BF11742000F023F800BFA6
:10170000B00A00208F8A0100628A0100BFF34F8F68
:101710000549064BCA6802F4E0621343CB60BFF38D
:101720004F8F00BFFDE700BF00ED00E00400FA05A9
:1017300008B572B6024B5B6803B19847FFF7E6FF46
:10174000500F00201FB572B6134B5D688DB9FFF7BF
:10175000DDFFB2FBF6F2DCB20133002AF9D104F16D
:1017600010036B4403F80C2C0A2234B901A8A847D3
:10177000EDE7024600230A26EDE7631E04AEDCB265
:1017800056FA83F3B0FBF2F602FB1600303003F892
:101790000C0C3046E9E700BF500F00204FF080529C
:1017A000034BD2F830111960D2F834215A607047D7
:1017B0008C0F0020034B1868A0F10F0358425841CA
:1017C000704700BF8C0F0020034B1868A0F10A037C
:1017D00058425841704700BF8C0F0020034B1868D7
:1017E000A0F10E0358425841704700BF8C0F0020F3
:1017F000034B1868A0F1100358425841704700BFCE
:101800008C0F0020044B1868062803D0431C584254
:1018100058417047012070478C0F0020034B186817
:10182000A0F10D0358425841704700BF8C0F0020B3
:10183000034B1868A0F1080358425841704700BF95
:101840008C0F00202DE9F04184075FFA81FE5FD004
:10185000002A59D0034601E0002A55D003F801EBD5
:10186000990702F1FF32F7D14EEA0E24032A44EA27
:1018700004443ED9151FAE08172D06F10106C3F327
:10188000800147D99846002940D048F8044B771A80
:1018900003EB810C79080CEBC101CCE900440CF19D
:1018A000080C6145F9D127F0010C08EB8C01674564
:1018B000CCEB8C7805EB880517D02F1F032F0C601D
:1018C00013D9A5F10807032F4C600ED9A5F10C0719
:1018D000032F8C6009D9A5F11007032FCC6004D920
:1018E000143D032D0C6188BF4C6102F0030203EB31
:1018F00086034AB1013A83F800E005D0012A83F853
:1019000001E018BF83F802E0BDE8F0811546BEE7AC
:101910000346A9E719461546CFE700BF81F000410D
:1019200002E000BF83F0004330B54FEA41044FEAC4
:10193000430594EA050F08BF90EA020F1FBF54EA5F
:10194000000C55EA020C7FEA645C7FEA655C00F0FB
:10195000E2804FEA5454D4EB5555B8BF6D420CDDCC
:101960002C4480EA020281EA030382EA000083EA4F
:10197000010180EA020281EA0303362D88BF30BDEF
:1019800011F0004F4FEA01314FF4801C4CEA113145
:1019900002D0404261EB410113F0004F4FEA0333A4
:1019A0004CEA133302D0524263EB430394EA050F2F
:1019B00000F0A780A4F10104D5F1200E0DDB02FA9E
:1019C0000EFC22FA05F2801841F1000103FA0EF232
:1019D000801843FA05F359410EE0A5F120050EF1F8
:1019E000200E012A03FA0EFC28BF4CF0020C43FA29
:1019F00005F3C01851EBE37101F0004507D54FF036
:101A0000000EDCF1000C7EEB00006EEB0101B1F585
:101A1000801F1BD3B1F5001F0CD349085FEA3000CB
:101A20004FEA3C0C04F101044FEA445212F5800FD6
:101A300080F09A80BCF1004F08BF5FEA500C50F173
:101A4000000041EB045141EA050130BD5FEA4C0C56
:101A5000404141EB0101013C28BFB1F5801FE9D2B3
:101A600091F0000F04BF01460020B1FA81F308BFD6
:101A70002033A3F10B03B3F120020CDA0C3208DDA2
:101A800002F1140CC2F10C0201FA0CF021FA02F17D
:101A90000CE002F11402D8BFC2F1200C01FA02F1ED
:101AA00020FA0CFCDCBF41EA0C019040E41AA2BF12
:101AB00001EB0451294330BD6FEA04041F3C1CDADA
:101AC0000C340EDC04F11404C4F1200220FA04F0FA
:101AD00001FA02F340EA030021FA04F345EA0301A4
:101AE00030BDC4F10C04C4F1200220FA02F001FA66
:101AF00004F340EA0300294630BD21FA04F02946E8
:101B000030BD94F0000F83F4801306BF81F4801180
:101B10000134013D4EE77FEA645C18BF7FEA655CF3
:101B200029D094EA050F08BF90EA020F05D054EAC5
:101B3000000C04BF1946104630BD91EA030F1EBFCA
:101B40000021002030BD5FEA545C05D140004941CE
:101B500028BF41F0004130BD14F580043CBF01F5C1
:101B6000801130BD01F0004545F0FE4141F47001A7
:101B70004FF0000030BD7FEA645C1ABF1946104682
:101B80007FEA655C1CBF0B46024650EA013406BF83
:101B900052EA033591EA030F41F4002130BD00BF42
:101BA00090F0000F04BF0021704730B54FF48064FF
:101BB00004F132044FF000054FF0000150E700BF80
:101BC00090F0000F04BF0021704730B54FF48064DF
:101BD00004F1320410F0004548BF40424FF00001CC
:101BE0003EE700BF42004FEAE2014FEA31014FEA0F
:101BF00002701FBF12F07F4393F07F4F81F060515E
:101C0000704732F07F4208BF704793F07F4F04BFA8
:101C100041F40021704730B54FF4607401F0004585
:101C200021F000411CE700BF50EA010208BF7047E5
:101C300030B54FF000050AE050EA010208BF7047D6
:101C400030B511F0004502D5404261EB41014FF43F
:101C5000806404F132045FEA915C3FF4D8AE4FF047
:101C600003025FEADC0C18BF03325FEADC0C18BF2A
:101C7000033202EBDC02C2F1200300FA03FC20FA7B
:101C800002F001FA03FE40EA0E0021FA02F11444C8
:101C9000BDE600BF70B54FF0FF0C4CF4E06C1CEAE1
:101CA00011541DBF1CEA135594EA0C0F95EA0C0F52
:101CB00000F0DEF82C4481EA030621EA4C5123EAC5
:101CC0004C5350EA013518BF52EA033541F48011F4
:101CD00043F4801338D0A0FB02CE4FF00005E1FBA7
:101CE00002E506F00042E0FB03E54FF00006E1FBF1
:101CF00003569CF0000F18BF4EF0010EA4F1FF0434
:101D0000B6F5007F64F5407404D25FEA4E0E6D4173
:101D100046EB060642EAC62141EA55514FEAC52084
:101D200040EA5E504FEACE2EB4F1FD0C88BFBCF500
:101D3000E06F1ED8BEF1004F08BF5FEA500E50F1B1
:101D4000000041EB045170BD06F0004646EA010177
:101D500040EA020081EA0301B4EB5C04C2BFD4EBA9
:101D60000C0541EA045170BD41F480114FF0000EA2
:101D7000013C00F3AB8014F1360FDEBF002001F010
:101D8000004170BDC4F10004203C35DA0C341BDC8A
:101D900004F11404C4F1200500FA05F320FA04F05C
:101DA00001FA05F240EA020001F0004221F0004190
:101DB00010EBD37021FA04F642EB06015EEA430E03
:101DC00008BF20EAD37070BDC4F10C04C4F1200533
:101DD00000FA04F320FA05F001FA04F240EA0200E6
:101DE00001F0004110EBD37041F100015EEA430EB7
:101DF00008BF20EAD37070BDC4F1200500FA05F2D7
:101E00004EEA020E20FA04F301FA05F243EA020355
:101E100021FA04F001F0004121FA04F220EA020064
:101E200000EBD3705EEA430E08BF20EAD37070BDAA
:101E300094F0000F0FD101F00046400041EB01018A
:101E400011F4801F08BF013CF7D041EA060195F06C
:101E5000000F18BF704703F00046520043EB030326
:101E600013F4801F08BF013DF7D043EA0603704713
:101E700094EA0C0F0CEA135518BF95EA0C0F0CD01E
:101E800050EA410618BF52EA4306D1D181EA030164
:101E900001F000414FF0000070BD50EA410606BF5E
:101EA0001046194652EA430619D094EA0C0F02D1A3
:101EB00050EA013613D195EA0C0F05D152EA0336E8
:101EC0001CBF104619460AD181EA030101F0004106
:101ED00041F0FE4141F470014FF0000070BD41F04F
:101EE000FE4141F4780170BD70B54FF0FF0C4CF429
:101EF000E06C1CEA11541DBF1CEA135594EA0C0F48
:101F000095EA0C0F00F0A7F8A4EB050481EA030E94
:101F100052EA03354FEA013100F088804FEA03337B
:101F20004FF0805545EA131343EA12634FEA022249
:101F300045EA111545EA10654FEA00260EF000410A
:101F40009D4208BF964244F1FD0404F5407402D25C
:101F50005B084FEA3202B61A65EB03055B084FEAED
:101F600032024FF480104FF4002CB6EB020E75EBEA
:101F7000030E22BFB61A754640EA0C005B084FEA12
:101F80003202B6EB020E75EB030E22BFB61A75468F
:101F900040EA5C005B084FEA3202B6EB020E75EBDA
:101FA000030E22BFB61A754640EA9C005B084FEA52
:101FB0003202B6EB020E75EB030E22BFB61A75465F
:101FC00040EADC0055EA060E18D04FEA051545EA4E
:101FD00016754FEA06164FEAC30343EA52734FEAF7
:101FE000C2025FEA1C1CC0D111F4801F0BD141EA70
:101FF00000014FF000004FF0004CB6E711F4801FD5
:1020000004BF01430020B4F1FD0C88BFBCF5E06FB4
:102010003FF6AFAEB5EB030C04BFB6EB020C5FEAC4
:10202000500C50F1000041EB045170BD0EF0004E19
:102030004EEA113114EB5C04C2BFD4EB0C0541EA4B
:10204000045170BD41F480114FF0000E013C90E648
:1020500045EA060E8DE60CEA135594EA0C0F08BF0C
:1020600095EA0C0F3FF43BAF94EA0C0F0AD150EA0B
:1020700001347FF434AF95EA0C0F7FF425AF10469E
:1020800019462CE795EA0C0F06D152EA03353FF4C6
:10209000FDAE1046194622E750EA410618BF52EA43
:1020A00043067FF4C5AE50EA41047FF40DAF52EA17
:1020B00043057FF4EBAE12E74FEA4102B2F1E04391
:1020C00024BFB3F5001CDCF1FE5C0DD901F0004C1F
:1020D0004FEAC0024CEA5070B2F1004F40EB83006F
:1020E00008BF20F00100704711F0804F21D113F19B
:1020F0003872BCBF01F00040704741F480114FEAD4
:102100005252C2F11802C2F1200C10FA0CF320FA5C
:1021100002F018BF40F001004FEAC1234FEAD32379
:1021200003FA0CFC40EA0C0023FA02F34FEA4303E3
:10213000CCE77FEA625307D150EA01331EBF4FF06C
:10214000FE4040F44000704701F0004040F0FE4087
:1021500040F40000704700BF7BB972B90029BEBFD0
:1021600000204FF0004106E008BF00281CBF6FF0C0
:1021700000414FF0FF3000F057B8ADF1080C6DE9A9
:1021800004CE002909DB002B1ADB00F0A3F9DDF8EF
:1021900004E0DDE9022304B07047404261EB4101F5
:1021A000002B1BDB00F096F9DDF804E0DDE90223EB
:1021B00004B0404261EB4101524263EB430370477C
:1021C000524263EB430300F085F9DDF804E0DDE9FA
:1021D000022304B0404261EB41017047524263EB7D
:1021E000430300F077F9DDF804E0DDE9022304B0F1
:1021F000524263EB4303704753B94AB9002908BF01
:1022000000281CBF4FF0FF314FF0FF3000F00CB83A
:10221000ADF1080C6DE904CE00F05CF9DDF804E0E6
:10222000DDE9022304B07047704700BF10F8012BAE
:1022300011F8013B012A28BF9A42F7D0D01A704703
:10224000034613F8012B002AFBD1181A01387047F6
:1022500008B5FFF7A3FABDE80840FFF717BA70B555
:10226000841A04F307040E4660B259B21546FFF70C
:10227000FDF9002330702844737040B270BD1FB563
:102280000C4611461A469DF81830009303ABFEF732
:10229000E5FF9DF80C309DF90E0023709DF80D3080
:1022A000637004B010BD00230360704770470020C6
:1022B00070474FF0FF3070474FF0FF307047704766
:1022C0004FF0FF3070470020704700207047002318
:1022D000037070479DF800300022FFF7C0BF002058
:1022E00070474FF0FF3070474FF0FF3070474FF0AE
:1022F000FF30704770478B8C8383FF2380F830302A
:1023000080F84C3000207047536973B506460D467F
:102310001446B3B140B10092136804F114010122D4
:10232000FEF7FEFF58B9266275B1236800940022BB
:1023300004F114012846FEF7F3FF00B9656202B00C
:1023400070BD4FF0FF30FAE72846F8E7D36873B561
:1023500006460D461446B3B140B10092536804F1ED
:102360000C010122FEF7DCFF58B9A66275B1636863
:102370000094002204F10C012846FEF7D1FF00B9B9
:10238000E56202B070BD4FF0FF30FAE72846F8E78B
:10239000436910B50446A3B1006A28B12246012161
:1023A000FFF732F860B92062606A28B12246002146
:1023B000FFF72AF820B960622046FEF793FF00205D
:1023C00010BD4FF0FF30FBE7C36810B50446A3B162
:1023D000806A28B122460121FFF716F860B9A06291
:1023E000E06A28B122460021FFF70EF820B9E0622A
:1023F0002046FEF777FF002010BD4FF0FF30FBE7CF
:1024000073B50123144682F8343004F134060022F7
:102410000D46A063236884F84820009404F1140159
:102420003046FEF77DFF50B902466368009404F120
:102430000C013046FEF774FF08B984F84C5002B026
:1024400070BD032303607047704700207047002071
:1024500070470020704737B50C46054650220021D2
:10246000FFF7F0F9637A6B7263686B60237A2B7203
:102470002146284651F8183B40F80C3BFEF7A6FED3
:1024800005F1140004F10C01FEF7A0FE28462146D8
:10249000FFF731FF054650B994F90830ADF8050053
:1024A0008DF8070001A88DF80430FEF7E3FE2846FA
:1024B00003B030BD00280CBF6FF01500002070473E
:1024C00000207047072303700020704700207047EA
:1024D000002070472DE9F04786468C460846089E46
:1024E000154674461946002B40F0C2808542B2FA68
:1024F00082F245D94AB1C2F1200300FA02FC2EFA59
:1025000003F3954043EA0C0C94404FEA154EA8B2F1
:10251000BCFBFEF8230C0EFB18CC08FB00F943EAC9
:102520000C43994528D9EB1808F1FF3704D2994597
:1025300002D9A8F102072B44A3EB0903A4B2B3FB11
:10254000FEFC0EFB1C330CFB00F044EA0344A042EB
:1025500014D92C190CF1FF3304D2A04202D9ACF1EA
:1025600002032C44241A43EA07401EB1D44000233E
:1025700034607360BDE8F0874746DDE76346F1E706
:1025800092BB431B01214FEA154EAFB2B3FBFEFCD9
:10259000200C0EFB1C330CFB07F840EA0343984564
:1025A00062D9EB180CF1FF3004D2984502D9ACF196
:1025B00002002B44A3EB0803A4B2B3FBFEFC0EFB0A
:1025C0001C330CFB07F744EA0344A7424ED92C19ED
:1025D0000CF1FF3304D2A74202D9ACF102032C4420
:1025E000E41B43EA0040C0E7C2F1200320FA03F1F4
:1025F000954090402EFA03F303434FEA154EAFB2D5
:10260000B1FBFEFC0EFB1C10190C0CFB07F841EA99
:102610000041884504FA02F422D969180CF1FF3010
:1026200004D2884502D9ACF102002944A1EB08018B
:102630009BB2B1FBFEFC0EFB1C110CFB07F743EA3F
:1026400001439F420ED9EB180CF1FF3104D29F4297
:1026500002D9ACF102012B44DB1B41EA004192E7B5
:102660006046E3E76146F7E76046A3E76346B7E7FE
:10267000834206D916B9002108467BE7C6E900E087
:10268000F9E7B3FA83F78FB9834201D3724508D8CB
:10269000BEEB020460EB030301209C461EB900213F
:1026A00068E73846FAE7C6E9004CF8E7C7F1200CBE
:1026B000BB4022FA0CF41C432EFA0CF120FA0CF366
:1026C000B84001434FEA14490EFA07F5B3FBF9F895
:1026D0001FFA84FE09FB18300B0C08FB0EFA43EAC4
:1026E00000439A4502FA07F240D9E31808F1FF3097
:1026F00004D29A4502D9A8F102002344A3EB0A03AD
:1027000089B2B3FBF9F809FB183308FB0EFE41EA66
:1027100003418E452CD9611808F1FF3304D28E4550
:1027200002D9A8F10203214443EA0040A0FB029829
:10273000A1EB0E014145CE46434602D306D14D459D
:1027400004D2B9EB020E68EB04030138002EA6D0C8
:10275000B5EB0E0261EB030101FA0CFC22FA07F360
:102760004CEA0303F940C6E9003198E74046C5E763
:102770004346D9E7000000002DE9F047A2B007F07A
:1027800073F905F023F8002840F0BF80002140F6DF
:10279000CD4011F051FEB648DFF8748314F04CF9C7
:1027A00015232821CDE90131022340F2E9710B22E2
:1027B000B0480093132314F03FF9AF4814F03CF9EC
:1027C000AE4814F039F9AE4814F036F9AD4814F0BB
:1027D00033F9AD4814F030F9AC4814F02DF9AC4899
:1027E00014F02AF9AB4814F027F9AB4814F024F997
:1027F000AA4B18681B798DF82030A94B07909A884E
:1028000018689B798DF85230A64B139018681B7985
:102810008DF82830A44BADF8502009909A8818689C
:102820009B798DF85A30A14B0593A14B1590ADF8CB
:10283000582018689A889B798DF862309D4B1790C4
:1028400018681B798DF830309B4B0B901868ADF8E9
:1028500060200D901B798DF83830984B18681190D6
:102860009B889748ADF8483014F0E6F8954B9648A9
:10287000069314F0E1F8954B7BA7D7E90067186839
:102880001B790F908DF8403007F0D6F814220446DB
:1028900000211DA815F06FFD05221DA9204602F09C
:1028A000FFF905460028EFD01D9801F0FBFC012D33
:1028B00002D01E9801F0F6FC07A92046FFF7B6FCEF
:1028C00038BB834814F0B8F815232822CDE901322B
:1028D00002230B2240F2E97100936648132314F09F
:1028E000ABF87C4814F0A8F87B4814F0A5F87B48B6
:1028F00014F0A2F84FF080527948D2F8A830D2F8FC
:10290000A4209BB214F098F8BEE7012011F0D0FD8E
:1029100037E713A92046FFF789FCB0BB15F0D1FCBF
:10292000704AA0FB020302FB0131C00B40EA4140A8
:102930006D4A1423C90BFFF70FFC044619461046D5
:102940003B463246FFF708FC054619461046002371
:10295000664AFFF701FC8146194610460023614A8A
:10296000FFF7FAFB82461946104600234FF47A72AD
:10297000FFF7F2FBCDF800A0CDE901024B465C4821
:102980002A46214614F058F87EE705A92046FFF7AD
:102990004DFC10BB022D03D0564814F04DF873E7E0
:1029A0001E98102113F0D2FD534ACDE900010546CF
:1029B0000C4619A80D2114F04CF855EA04030AD06E
:1029C0001E9919A8FFF732FC28B901222846214692
:1029D00001F01EFA58E74948DFE717A92046FFF73C
:1029E00025FC10B901F0BEFA4EE709A92046FFF711
:1029F0001DFC0546A0B94248DFF8189114F01CF8F8
:102A00002C46404D2A78E3B29A427FF63DAF08EB60
:102A1000C303D3E90023484614F00EF80134F1E76C
:102A200015A92046FFF702FC58B9374B37491A68F9
:102A3000116018680122042102F062F9012003F0FC
:102A4000F1FD0BA92046FFF7F1FB10B901F096FB51
:102A50001AE70DA92046FFF7E9FB00285CD101F039
:102A600097FB11E7AFF3008000A493D600000000AD
:102A70005695010087950100E69501001B9601001F
:102A80004B9601007C960100B0960100E49601008F
:102A90001597010046970100769701002A9D0100D5
:102AA000579901005E990100639901006164640017
:102AB000DC9401006A9901006F990100749901008A
:102AC000A997010064667500DC970100CB990100AD
:102AD0000098010029980100409801004F980100DA
:102AE0006F98010040420F000060D71D00879303DC
:102AF00089980100AE980100CB980100D39801009D
:102B0000E4980100BC750020380600207E67E54E81
:102B1000D81200208098010011A92046FFF786FBFB
:102B200010B901F03BFBAFE606A92046FFF77EFB9C
:102B3000D8B92348436881681B6802691B030AD41B
:102B4000204921484FF47F7213F0E9FF1D484FF4EC
:102B50007F7113F0DBFF136823F4002313600B680D
:102B60004FF4C022132198478EE60FA92046FFF7A5
:102B70005DFB18BB15F0A5FB4FF4C3620023FFF704
:102B8000EBFA104619464E220023FFF7E5FA0446F9
:102B90001946104600230D22FFF7DEFA0B4B0C49B5
:102BA000D2B2C0B253F822300A4AE4B252F820201E
:102BB00051F82410084813F03FFF65E60748ECE69B
:102BC0000C850100F598010026990100088B010091
:102BD000548B01003C8B01003E9901004699010095
:102BE0002DE9F04FD0E9006389B0876803938389AA
:102BF00005930D46B36803995B6806AA304698476B
:102C0000002831DBDDE9064BA7FB042307FB0B386B
:102C100004920498DFF8609015A3D3E9002341469D
:102C2000FFF7EAFA049B4FF0FF3A9A4579EB080365
:102C3000074619D3A5FB044305FB0B3529460CA316
:102C4000D3E900232046FFF7D7FAA24579EB050523
:102C5000034609D38742B26806D3059900911468E8
:102C600003993A463046A04709B0BDE8F08F00BF4F
:102C700000CA9A3B00000000FFC99A3B0000000018
:102C80002DE9F04F9FB08246039117461C46002560
:102C9000387810B9284600F0A6BD252809D0039938
:102CA000D0470028C0F29F857B1C01350593059F06
:102CB000EEE71822002110A815F05DFB7B78252B8C
:102CC00000F0BC800023791C98469E469C4618461E
:102CD0000E4611F8012B2B2A00F0E38000F2DA8077
:102CE000202A00F0E180232A00F0E1802BB19DF83A
:102CF000483043F040038DF84830B8F1000F05D05C
:102D00009DF8483043F020038DF84830BEF1000FA5
:102D100005D09DF8483043F010038DF84830BCF1E1
:102D2000000F05D09DF8483043F008038DF8483077
:102D300028B19DF8483043F004038DF848309DF8E1
:102D4000483003F04401442903D16FF386138DF812
:102D500048309DF848300E9643F080032A2A8DF8BB
:102D6000483040F0A9809DF8493043F001038DF8C8
:102D70004930731C1A782E2A9DF849200CBF012176
:102D8000002161F341028DF849200CD15A1C0E92AA
:102D90005A782A2A40F0A0809DF8492042F0040287
:102DA0008DF8492002331A786C2A00F0C18000F2B5
:102DB000A380682A00F0A9806A2A00F0C2804C2A09
:102DC00000F0C78013F8012B0593782A8DF84B206B
:102DD00000F209816D2A00F2C980692A00F203819C
:102DE000572A00F2E280412A04D0A2F14503022BC7
:102DF00000F2F9809DF84A3002F0DF020421A2F1CE
:102E0000410961F30203D9F100029DF849108DF8E0
:102E10004A3042EB090262F3C7110A068DF84910E5
:102E2000CBB200F11F8103F07802182A40F009812B
:102E30006FF3C6038DF849300023F8E08DF84B306E
:102E4000BB1C05939DF849309DF84A20DE0702F02F
:102E5000070040F1098154F8041B0491002908DAA5
:102E60009DF8481041F004018DF84810049949423A
:102E70000491590740F1008154F8046B002E80F250
:102E8000FF809DF849306FF341038DF849304FF0D2
:102E9000FF36F5E02D2A0DD0302A7FF427AF01232D
:102EA00016E74FF0010C13E74FF0010E10E74FF05B
:102EB00001080DE701200BE70EA803F015F90E9BA2
:102EC000B3423FF457AF9DF848201390C00F60F312
:102ED00041028DF848204DE70EA803F005F99DF852
:102EE00048301490C3F3400242EAD07262F34103C7
:102EF0008DF848300E9B56E7742A26D07A2A7FF444
:102F000061AF9DF8492006210CE05A78682A9DF8A7
:102F1000492006D1012161F3C6028DF84920023310
:102F200050E7022161F3C6028DF84920013349E7D9
:102F30005A786C2A9DF8492001D10421EBE703213E
:102F4000F0E79DF849200521ECE79DF8492007218D
:102F5000E8E7BDF8482022F4F04222F0020242F4F1
:102F6000804242F00202ADF84820DFE76E3AD3B269
:102F700001229A4040F282431A429DF8493039D1E9
:102F800012F0240F61D1D1072DD59DF84A2003F00E
:102F90007803A3F14008032161F30202D8F1000392
:102FA0008DF84A2043EB080341E0A2F15801C9B271
:102FB000012000FA01F111F4624F7FF41BAF40F6DB
:102FC000010319429DF849301AD111F4043F0AD087
:102FD0009DF84A2060F3020203F07803402B8DF83D
:102FE0004A207FF429AF9DF8483043F001038DF863
:102FF000483021E79DF84A20022161F30202EBE705
:103000009DF84A10022003F0780360F30201402B80
:103010008DF84A1002BF9DF8481041F001018DF86B
:103020004810632A7FF408AF003B18BF01239DF8C6
:103030004820C2F340010B4363F341028DF848205E
:1030400000E713F0380FCED1F6E69DF84A200321B1
:1030500013F0780F61F302028DF84A2014BF0123A8
:103060000023E4E70123E2E79DF948100029B4BFFB
:1030700013994FF0FF31FBE69E077FF508AF149ED2
:1030800000230428CDE913339DF8493007D199076F
:1030900005D49DF949100029ACBF06260D2602F083
:1030A0000702012AC3F3C30332D1DA1E042A04D86B
:1030B000DFE802F02045452020002268012B4FEA7E
:1030C000E271CDE910211BD19DF94020D117CDE946
:1030D000102104349DF84820069292074FD0059B9A
:1030E00003993A46504613F0FAFC0028C0F27B835D
:1030F0000544DCE554F8042BD117CDE91021E9E7AC
:10310000022BE6D111B242F3C032CDE91012E0E752
:10311000022A24D1DA1E042A04D8DFE802F01810AB
:1031200010181800012B54F8042B4FF0000114D094
:10313000022BCDE91021CDD192B21092CAE707340B
:1031400024F00704F4E80201CDE91001C2E754F8C5
:10315000042B109200221192BCE7D2B2CDE7042AD0
:1031600008D1073424F00704D4E900010834CDE97C
:103170001001AFE7032AADD154F8042BDDE79DF829
:103180004B80B8F1780F3FF692ADB8F1570F5CD88D
:10319000B8F1250F00F0A480B8F1240F7FF687ADB9
:1031A000B8F1410F04D0A8F14503022B3FF67FADE3
:1031B000DDE91023002BC0F24D810699080700F1CC
:1031C0004C81C1F300194FEA4919C3F30A51C3F303
:1031D0001303002940F0448152EA030014BF4FF06A
:1031E000010C4FF0000CD80240EA5250D702CDE952
:1031F0000C70B8F1460F47EA010740EAE17008BFDA
:103200004FF06608384300F0B881BCF1000F10D0D1
:103210001B0343EA125317033A4618464FF0000CBB
:10322000002880F25681BCF1000F40F05981CDE9B1
:103230000C730D9B43F00043A1F2FE3B0D93002164
:10324000DDE90C230F46052060E1A8F15802202A91
:103250003FF62DAD01A151F822F000BF2734000048
:10326000AF2C0000AF2C0000AF2C0000AF2C0000F2
:10327000AF2C0000AF2C0000AF2C0000AF2C0000E2
:10328000B1310000AF2C0000D3330000E733000061
:10329000B1310000B1310000B1310000AF2C0000AD
:1032A000E7330000AF2C0000AF2C0000AF2C000073
:1032B000AF2C00002D3400002734000077330000CD
:1032C000AF2C0000AF2C0000F1320000AF2C00004A
:1032D00027340000AF2C0000AF2C00002734000082
:1032E00003994046D0470028C0F27D820135DEE4D4
:1032F000002E109F3BDB3146384615F064F8002F56
:103300003FF4D5AC3E18F31B4FF000099DF84A205E
:1033100012F01001069100F05B82023312F04002BD
:10332000DDF84C80089218BF149ACDF81C804344F5
:1033300018BF9B18049A002A40F36582D31A9DF89F
:10334000482004935007C2F3800B00F15C825106C1
:1033500040F14C82B9F1000F07D003994846D0479D
:103360000028C0F240820135D94630223FE238467B
:10337000FEF766FFC6E71098002800F024820DF1E2
:103380007503009312AA17AB002102F0C3FEBDF82B
:103390004A3003F0EF0343F4F04343F010030746D1
:1033A000ADF84A304FF00009002E0CDB9DF84820A4
:1033B0000DF17503DB1B6FF386129E428DF84820DA
:1033C00001D9F31A1393002F3FF471AC0DF1750678
:1033D0006DE0109B8DF85C304FF000090DF15D063B
:1033E00017AF012392E7069B1F0758BFC3F30019CD
:1033F000DDE9102354BF4FEA49194FF02B09002B88
:1034000006DA524263EB4303CDE910234FF02D0956
:103410000DF175030093DDE9100117AB12AA02F05C
:1034200079FE0746C0E74FF00009F1E7109A072B35
:103430003FF63DACDFE803F00C04060C08080C0C6A
:10344000157034E4158032E4EB17C2E900532EE422
:1034500015602CE44FF02D09B7E64FF02B09B4E6C8
:1034600040F2FF70814231D108F10108A2495FFAB0
:1034700088F8134311F8081001F003011ED1012947
:103480000BBF492369234E216E210CBF46226622C1
:103490008DF85C309DF848308DF85D106FF3861321
:1034A0008DF85E208DF848300DF15F0617AFF31BE5
:1034B000B9F1000F3FF42AAF013327E7012915BF07
:1034C0006E234E23612141211A46E1E74FF0000CA3
:1034D00089E6921801F1FF3140414FF0010C9FE65F
:1034E000CDE90C20A5E6520842EAC3725B08B3F1AD
:1034F000333F59460BF1010BF5D200FB03FCA2FB55
:10350000002301F1020B6344013F01211BF1020F73
:10351000E9DB09B1CDE90C23BBF1000FDDE90C3289
:103520002EDCCBF10401A1F120000BF11C0B02FAFF
:103530000BFB22FA00F0CA40CB40079208F0DF02F2
:1035400043EA0B03472A43EA00037DD1F91C01DB60
:10355000BE422BDAA8F10208002E5FFA88F87CDD63
:103560009DF84820920606F1FF3676D4B6F1000B9E
:1035700018BF4FF0010B721C27E04FF0000B5EE606
:10358000023342F100020CA8CDE90C3213F078FAB4
:10359000DDE90C320BF1FF3B0137DB185241002A09
:1035A0000BF1FF3BF9DACDE90C32B5E79DF8482085
:1035B0009006A6EB07064DD4B6F1000B18BF4FF0EE
:1035C000010BF2194FF066084AD4102AA8BF102246
:1035D0009FED477B8DED0E7B10200B90DDE90E01FA
:1035E000002A3FD1079A1B1842EB0101B1F1805F1D
:1035F00047D2CDE90C31069BB8F1660F03F02002EB
:1036000040F0C180002F47DC30238DF85C30002A69
:1036100074D1002E40F3BA812E238DF85D3087B12E
:103620007B42B342A8BF33469DF84A201393002B38
:10363000A6EB0306D4BF0023012363F345128DF8E4
:103640004A200DF15E0340E0B8F1660F4FF0000B29
:10365000B7D090E74FF0000BB3E74FF0000B8AE7CD
:103660000022B5E7400840EAC1704908CDE90E01E3
:103670000EA8CDE9082313F003FA089A099B013A32
:10368000ACE75B0843EAC1730CA84908CDE90C31EB
:10369000013713F0F5F9AEE717AB0B9900290BDDF5
:1036A0000BA90CA8CDE9063213F002FA069B079A83
:1036B00003F8010B013FF0D11397AAB9002E40F394
:1036C00063812E2103F8011B0027002E1FDD0B9ABA
:1036D000002A1CDD0BA90CA8069313F0E9F9069B40
:1036E000013E03F8010BF0E72E2203F8012BEBE774
:1036F000000000000000000859B901002E238DF8D9
:103700005D30002F9DD0002E8ADC0DF15E03BBF1F1
:10371000000F4CD114961E4608F0DF03452B21D133
:10372000002FBABF7F422D232B23632FC8BF6422F3
:103730007370C2BFB7FBF2F303F1300102FB1377E2
:103740004FF00A0286F80080CABFB1700236033615
:10375000B7FBF2F303F1300102FB13733033317026
:1037600073700236139B002B2BDC149B002BD4BFF1
:10377000002301239DF84A2063F3861200238DF86D
:103780004A20337092E60BA90CA8069213F090F928
:10379000069A8DF85C00302818BF07F1FF3712B980
:1037A000002E40F3F3802E238DF85D3049E71E464E
:1037B000013B16F8012C302AF9D02E2A08BF1E46EC
:1037C000AAE70123D6E7734E8146771F05239DE5BF
:1037D000110748BF0133A1E5104609920399D0476C
:1037E0000028099A05DA1FB0BDE8F08F2022DDF825
:1037F00010B0594600290BF1FF3BEDDC049BCDF8DE
:1038000010B02B445D1AB9F1000F05D0039948465A
:10381000D0470028E7DB0135089B002B79D09DF9C4
:103820004930002B29DBDFF870913B46187819F8F6
:10383000002052079B4603F101033FD49DF84A3014
:10384000EF1B98065F4407D44246002A08F1FF3870
:103850003BDC079B3B449F1A9BF800002E280AD1B3
:103860000399D0470028BEDBB8F1000F07F101072C
:1038700031DC0BF1010B5D4638E0B94699F80000E8
:103880007028C84609F1010913D1EF1B149D474464
:103890003D44EB1B002B34DC039933464246504633
:1038A00013F01DF900289EDB3844049E05460644AB
:1038B00065E00399D0470028E0DA94E7069303997E
:1038C000D0470028069BB1DA8DE703993020D04716
:1038D0000028B9DA87E703993020D04708F1FF388C
:1038E000C0E70399D0470028FFF67DAF287819F884
:1038F00000305907A84605F10105F2D4A7EB0B07E4
:10390000C4E703993020D0470028FFF66CAF013799
:10391000BFE79DF84A30DA0601D41B0706D50399A4
:103920003020D0470028FFF65EAF0135069B3BB143
:1039300003999DF84B00D0470028FFF654AF01359E
:10394000A84406E003993020D0470028FFF64BAF8B
:103950000135A8EB0503002BF4DC039933463A4606
:10396000504613F0BCF80028FFF63DAF28449CE712
:1039700003992020D0470028FFF635AF0135731B8F
:10398000002BF5DCFFF793B91746C0E60DF15D0398
:10399000BDE600BFE39E01005AB9010070B5284C96
:1039A00020460CF0CFFA0546002838D12378082BA2
:1039B00002D0102B1ED070BD224BD4F805201A6007
:1039C000D4F809205A605B78013B012BF3D906201B
:1039D00003F0E6FE30B11C4B4361022303744574CF
:1039E0008574C57400234FF48652BDE870401749B2
:1039F00013F039BD164BA2791B789342DBD91549D8
:103A00008B5C182B02D801338B54D4E76379DF2BFE
:103A1000D1D8A178601DBDE8704000F065BE0820D7
:103A200003F0BEFE40B10C4BC0E90535032303741F
:103A3000002343748374C37400234FF4C252D4E749
:103A4000977500208F750020D49201004C890100E9
:103A5000BC7500208F740020E792010070B506202D
:103A600003F09EFE38B1214B43610223037400230F
:103A700043748374C3741E4C1E4900234FF4865252
:103A800013F0F1FC23786BB300250620257003F0BA
:103A900087FE30B1184B436102230374457485746B
:103AA000C574002313494FF4865213F0DCFC0A203E
:103AB00012F035FD23789BB1062003F071FE38B17A
:103AC0000E4B436102230374002343748374C37455
:103AD000BDE87040074900234FF4865213F0C3BC81
:103AE0000CF010F80023237070BD00BF0993010093
:103AF0007E7400204C89010024930100379301005B
:103B000010B50C484FF48072002114F034FC0024EE
:103B10004FF47A7012F003FD064A002312F8011BDD
:103B20000133182998BF02F8014CB3F5807FF5D115
:103B3000EEE700BF8F74002030B5002085B009F09B
:103B4000A1FE0446A8B9062003F02AFE30B12C4B92
:103B500043610223037444748474C47429490023A8
:103B60004FF4825213F07FFC6FF00504204605B03D
:103B700030BD00250123694601950395029302F0AB
:103B80002BFF041E12DA082003F00AFE38B11E4B88
:103B90004574C0E90534032303748574C574194959
:103BA00000234FF4C25213F05EFCDFE742F21174BF
:103BB000029D15F0030518D0013CF9D1082003F04F
:103BC000EFFD48B1114B43616FF00A03836103239A
:103BD000037444748474C4740A4900234FF4C452B7
:103BE00013F041FC6FF00A04C0E7039C002CBDD029
:103BF000082003F0D5FD0028D1D0054BC8E700BF51
:103C0000519301004C89010071930100A9930100B7
:103C10008A9301002DE9F041394E86B0337800AF28
:103C200080468BB1062003F0BBFD38B1354B4361B4
:103C300002230374002343748374C3743249002342
:103C40004FF4845213F00FFC304D0FCD3C1D0FC4C8
:103C50002B6823602E4BB8F1000F30D0BB601E23C1
:103C6000BB7300237B8201233B752A4B01256C46E5
:103C700088B0BD756A462849C2E905134FF4007340
:103C80009383264B42F8103F1F4800234FF4E65120
:103C900003F02CFF381DA5460BF086FF0446A8B1A3
:103CA000082003F07DFD08BB174900234FF4C252E2
:103CB00013F0D9FB0121022001F014FB11E00122D5
:103CC000BB601E23BB737A71154BCFE715480CF010
:103CD0002FFA15480CF046FA144808210CF05CFA4B
:103CE000357020461837BD46BDE8F081104BC0E95D
:103CF000053403230374002343748374C374D3E72C
:103D00007E740020D49301004C890100408A010098
:103D100013650100D2930100EC9301000300000140
:103D200014AA01008B740020877400207F74002087
:103D300007940100074B08491A68084B1A60084BA2
:103D40001A68084B1A60084A0B6813604B68536086
:103D5000704700BF259401002A9401008B74002055
:103D600033940100877400207F74002010B5244B29
:103D700093E8030086B04FF080520090ADF8041035
:103D800092F8A9400290034608448DF80C00C3F352
:103D9000072050FA81F000228DF80D00CDE90422B1
:103DA000C3F307401B0E50FA81F053FA81F18DF8EE
:103DB0000F108DF80E000DF10F011346E2180133BC
:103DC000082B01F8012FF9D102A9002211F8013BBB
:103DD0001BB1552B01D0AA2B02D1083301F8013CAD
:103DE0000132102AF2D1074B029A1A60064B039A4D
:103DF0001A6004AB03CB054A1060516006B010BDD9
:103E0000A40000108B740020877400207F740020B1
:103E10002DE9FF47DFF83C81DFF8449198F8003046
:103E200006460D4686468A461746002A77D0CC4677
:103E30001C460022934264DCA34272D10A2003F0A4
:103E4000AFFC50B1414BC0E90865C0E90534062319
:103E50000374002343748374C3743D4900234FF4F7
:103E6000435213F000FB09EBC402E01C08230021BD
:103E700080B249F83460556001F036FB98F80030A4
:103E8000344A013388F8003001230021184601F03C
:103E90002BFB9FB3062202A90720CDE900650296FD
:103EA000ADF80C5001F002FC4FF08053061E4FF0AD
:103EB000080008BF0826D3F8A470D3F8A85003F070
:103EC0006FFCA8B1E217244B4361120242EA14626C
:103ED0002B04240243EA174344EA074413433443C0
:103EE0000022C0E906430423037442748274C2743E
:103EF000174900234FF4035213F0B5FA04B0BDE89C
:103F0000F0875EEA0A0106D0DCE90001514508BFEE
:103F1000704508BF144601320CF1080C8AE71C46B4
:103F20008CE7082003F03CFC40B10C4BC0E90534A1
:103F300003230374002343748374C374044900236C
:103F40004FF4C65213F08FFAA4E700BF3894010073
:103F50004C890100BC750020849401006394010029
:103F6000D81200202DE9F0411B4D2C7824B30123F9
:103F70001846013C2A4600212C7001F0B5FA2C7835
:103F8000164B0A2003EBC403D3E9006703F008FCD7
:103F900050B1134BC0E90867C0E905340623037428
:103FA000002343748374C37400234FF44352BDE869
:103FB000F0410C4913F057BA062003F0F1FB30B181
:103FC000094B43610223037444748474C474002352
:103FD0004FF48452EBE700BFBC750020D8120020DC
:103FE000A19401004C890100CE9401002DE9F84F05
:103FF000062003F0D5FB38B1554B4361022303740F
:10400000002343748374C37400234FF486525149D0
:10401000DFF85C8113F027FA0020FFF78BFE002405
:10402000FFF7F8FD0BF0DEFF4FF0805388F80340F8
:10403000D3F8A400484AC8F807009288A8F80B20D3
:104040000820D3F8A460D3F8A85003F0A9FB48B126
:10405000ADB2424B4361C0E9066504230374447466
:104060008474C47400233B49DFF808913C4DDFF8A9
:1040700008A14FF4035213F0F6F90221032000F0D7
:1040800055FF012389F80030FF236B7099F8003049
:104090003BB90221012000F049FFBDE8F84FFFF7CE
:1040A000DDBC304B187818B9FFF7B4FD0BF09AFF60
:1040B0006B78022B35D0FF2B35D02C686F689AF8BF
:1040C00000C0294E240C44EA0744E3463F0C00227A
:1040D00062452EDB06222549072001F0E7FA2A78FF
:1040E000061E08BF0826B2420FD154EA07020CD0C0
:1040F0009AF800205A4508D1204639460022FFF799
:1041000087FE0021082000F011FF2A78184888F85F
:1041100006B0964218BF002288F805200BF078FE02
:1041200001E00BF0DBFFFF236B70642010F0C0F99F
:10413000ACE754EA070107D0D6E900018F4208BF77
:10414000844208BF1FFA82FB01320836C0E700BF75
:10415000E39401004C890100A4000010EB940100DD
:104160008F7500207E740020D812002091750020E9
:10417000E40700207D740020BC75002008B5FFF71F
:104180006DFC024B00221A7008BD00BF7C74002039
:10419000014B00221A7070477D74002010B50E4A42
:1041A0000024012318462146147001F09DF90620D1
:1041B00003F0F6FA30B1094B4361022303744474EF
:1041C0008474C474064900234FF4865213F04BF9EB
:1041D000BDE81040FFF7D2BFBC7500200395010079
:1041E0004C89010008B5FFF7C1FD024B01221A708E
:1041F00008BD00BF7C740020F8B5254DFFF79CFC7E
:1042000001222946104601F099F92B7813B1214B70
:1042100001221A70204E00242F78A7422EDC08209D
:1042200003F0BEFA58B11D4BC0E905374FF4807357
:10423000C36104230374002343748374C374154C53
:10424000174900234FF4035213F00DF9237833B1CB
:10425000FFF7C8FF0020FFF7DDFC0BF0C3FE257859
:1042600045B9FFF7C3FEFFF7BDFF2846FFF7D2FCB5
:104270000BF0B8FE642012F052F9F0E7E01C314672
:10428000082280B201F05AF901340836C4E700BFB1
:10429000BC7500207C740020D81200200D95010010
:1042A0004C8901000649013810F8013F03B97047F5
:1042B000CA5C02F00302012A08BF20330370F3E74F
:1042C0005AB9010001480FF08DB800BF74550020A5
:1042D00008B5054804F0E6FC044905480FF010F85D
:1042E000044B01221A7008BDAD4400003D4500009A
:1042F00074550020BD770020034B1B7813B1034891
:104300000FF070B8704700BFBD77002074550020D3
:1043100010B5062003F044FA38B1084B436102237C
:104320000374002343748374C374BDE810400449CC
:1043300000234FF4845213F096B800BF419A010055
:104340007489010080B50C4A0C4B00AF88B000297D
:1043500008BF13466A460A49C2E905134FF40073C1
:104360009383084B42F8103F074800234FF4E6516F
:1043700003F0BCFBBD4680BD65990100049B0100B4
:10438000759A0100030000017489010037B53348B4
:10439000334D0DF06FFF04462860A0B9062003F0EE
:1043A000FFF930B12F4B43610223037444748474CA
:1043B000C4742D4900234FF4825213F054F86FF067
:1043C000120003B030BD082003F0EAF940B1274BDA
:1043D000C0E9053403230374002343748374C37456
:1043E000214900234FF4C65213F03DF8204B2149D8
:1043F00028680F2206F094FFBFF35B8F1E4B53E833
:10440000001F41F0010143E80012002AF7D1BFF379
:104410005B8F212200231948CDE9002310F0CEFD47
:104420002868002113F0B8FA88B1062003F0B8F923
:1044300038B1134B43610223037400234374837424
:10444000C374094900234FF4845213F00CF8286810
:1044500003B0BDE8304013F0A4BA00BF869A010053
:10446000685500208C9A010074890100A69A010009
:10447000A48B0100499C01006455002060080020C5
:10448000B99A0100084BBFF35B8F53E8002F22F06D
:10449000010143E800100028F7D1BFF35B8FD30779
:1044A00001D4FFF735BF704764550020012810B5CF
:1044B00002D0032804D010BD084B00221A70FAE77E
:1044C0000B78064C0BB92370F5E72378002BF2D15B
:1044D000034B1868FFF7D6FF0123F4E7FE770020AF
:1044E00068550020F8B5114D114C2E68A6B1082072
:1044F000278803F055F948B10E4BC761C0E905366E
:1045000004230374002343748374C3740A4900238F
:104510004FF4035212F0A7FF00232B6023800021E9
:104520004FF420300FF088FFDFE700BF6055002018
:1045300050740020D59A0100748901002DE9F341DF
:104540005C4B1B78002B7AD05B4D2B78002B76D000
:10455000BFF35B8F594B5A4E1C68BFF35B8FBFF3A1
:104560005B8F3768DFF87881BFF35B8FA74250D04D
:1045700013F0A7FE4FF47A72A0FB020302FB013195
:10458000C00B40EA4140C90BC8E900014D4BBFF3E5
:104590005B8F53E8002F42F0010143E80010002830
:1045A000F7D1BFF35B8FD30749D4E41B48BF04F5B1
:1045B0008074042C444BDFF82CC1A8BF04240021D4
:1045C0008C424FEA01123DD80232404E404F134414
:1045D0004FF0FF0E4FF0000C04294FD13D483A49EF
:1045E000006801AB402206F0B3FE40B3062003F0A2
:1045F000D7F838B1384B4361022303740023437466
:104600008374C374354900234FF4825212F02BFF98
:1046100015E013F056FE4FF47A72A0FB020302FB82
:104620000131C30BD8E9000243EA4143633B4FEA3F
:10463000D13141F1FF31984272EB010198DB02B0B8
:10464000BDE8F0810CEB07101A4400F1100E50F891
:10465000048B42F8048B7045F9D1BFF35B8F0137AF
:10466000B7F5807F08BF002756E8002F46E80070A6
:104670000028F9D1BFF35B8F0231A1E72C78B4B1E8
:10468000328803F8012C07EBC20857F83200186093
:104690000132B8F804009880B2FBF4F004FB102259
:1046A00003F802ECC3F806C0C3F80AC03280013137
:1046B000103391E7BD770020BC75002070550020B5
:1046C0006C55002064550020BE77002052740020F5
:1046D000D812002068550020F39A01007489010067
:1046E000981C0020FF7700202DE9F04F2DED048B62
:1046F0000678731E012B97B00446884602D9042E13
:1047000040F030810EAD002110222846CDE90B117A
:104710000D9113F030FE012E02D0042E40F0878060
:10472000B4F90800FDF74CFA00224FF07C53FDF776
:10473000B1FAFDF7C1FC0E90B4F90200FDF740FAA2
:1047400000224FF07C53FDF7A5FAFDF7B5FC0F9062
:10475000B4F90400FDF734FA00224FF07C53FDF762
:1047600099FAFDF7A9FC1090B4F90600FDF728FAB4
:1047700000224FF07C53FDF78DFAFDF79DFC119060
:10478000284611F007FFDFEDB77AB4EEE70AF1EE45
:1047900010FAB0EE408A07D4DFEDB37AB4EEE70A40
:1047A000F1EE10FA40F382806578B04B267803EB87
:1047B000C5030C20D3E9008902F0F2FF044688B15A
:1047C000AB4B4361C0E90689C0E9085618EE100AF0
:1047D000FDF708FA0823C4E90A012374002363746F
:1047E000A374E374002344F240022046A14912F06E
:1047F0003AFE0E98FDF7F6F9044611980D46FDF7BE
:10480000F1F9CDE904011098FDF7ECF9CDE90201C9
:104810000F98FDF7E7F92246CDE900012B469648AF
:1048200012F00AF917B0BDEC048BBDE8F08FD4F894
:104830000560C6F30900FDF7B3F9904B0022FDF7C0
:1048400029FAFDF739FC07EE900A77EEA77AB7EE62
:10485000008A77EEC87AC6F38A20CDED0B7AFDF791
:104860009FF900224FF07D53FDF714FAFDF724FC69
:1048700007EE900A77EEA77A700D77EEC87ACDED45
:104880000C7AFDF78DF900224FF07D53FDF702FA07
:10489000FDF712FC07EE900A77EEA77A294677EE2D
:1048A000C87A0BA8CDED0D7A00F0BAFE10220021D7
:1048B00012A813F060FD724E94F801A0DFF8F4B175
:1048C00006EB0A165346102212A930461F0113F0B8
:1048D00034FD6C4B3146814628461F4400F074FE7F
:1048E00039462846F0EE408A00F06EFE9FED667A6B
:1048F0006378F4EEC78AF1EE10FAB0EE408A14DD68
:10490000DFED627AF4EEE78AF1EE10FA0DD5B4EE3F
:10491000C70AF1EE10FA4FDDB4EEE70AF1EE10FA35
:104920004AD5B9F1000F40F05C8100224BF82320FA
:1049300095E80F0087E80F00554AD4F8053042F893
:104940002A30544B227803F80A2095E80F0086E8B5
:104950000F00514BD4F8052043F82A204F4B227802
:1049600003F80A204E4A234604F11000114653F87A
:10497000045B42F8045B8342F9D12378012B03D016
:10498000042B18BF81F80F80464B474ABFF35B8F5B
:104990001168BFF35B8FBFF35B8F1D68BFF35B8F45
:1049A0008D4205F1010300F03D81B3F5807F3F4F5B
:1049B00008BF0023184630E1B9F1000FB5D05BF80D
:1049C0002390B9F1490F77DC4FF0000862785BF86B
:1049D000223001334BF8223095E80F0087E80F00B2
:1049E0002B4AD4F8053042F82A302A4B227803F8B3
:1049F0000A20B8F1000F7FF415AF67785BF8273015
:104A00004A2B7FF70FAF194B0A2003EBC70393ED37
:104A1000008B02F0C5FE60B1254B436180ED068B33
:104A200005230762037480F8118080F8128080F8F3
:104A30001380104900234FF4225212F014FD6378C2
:104A400000224BF8232095E80F0086E80F00124B58
:104A5000D4F8052043F82A20104B227803F80A20C6
:104A6000E0E600BF77BE7F3FC520803FD812002020
:104A70000B9B0100748901002F9B01000000503F37
:104A800060450020602D0020B81E053FEC51B84065
:104A900060290020BD75002060410020BD76002007
:104AA000FF8700206C550020705500200078002002
:104AB000E79B0100603D00206C4A099302EBC302B2
:104AC00092ED009B10202278089202F069FE804649
:104AD000F8B1099B089A66490362426280ED069B21
:104AE000416118EE900AFDF77DF8C8E90A0118EE59
:104AF000100AFDF777F80B23C8E90C0188F810308D
:104B00000023C8F8389088F8113088F8123088F8F7
:104B1000133045F6400200234046564912F0A3FCEC
:104B20000E98FDF75FF8D4F80530079323780693C5
:104B3000804611988946FDF755F8CDE90401109893
:104B4000FDF750F8CDE902010F98FDF74BF842460A
:104B5000CDE900014B46484811F06EFF3868FDF77B
:104B600041F8464B53F82A300793454B13F80A3067
:104B700006938046F8688946FDF734F8CDE90401CC
:104B8000B868FDF72FF8CDE902017868FDF72AF83B
:104B90004246CDE900014B463A4811F04DFF3068DE
:104BA000FDF720F8384B53F82A300793374B13F8AA
:104BB0000A3006938046F0688946FDF713F8CDE980
:104BC0000401B068FDF70EF8CDE902017068FDF749
:104BD00009F84246CDE900014B462D4811F02CFF63
:104BE000F2E64FF00108F1E60601637817F806C017
:104BF0009C450BD1274B284A03F11001324453F84E
:104C0000040B42F8040B8B42F9D10BE60130B0F5EE
:104C1000807F4FF000033FF4CDAE8842E4D14B1CBF
:104C2000AB4202D0FF2905D125B91C4A13680133D4
:104C30001360F7E5184C174804EB011100F110045C
:104C400050F8045B41F8045BA042F9D1BFF35B8FDD
:104C5000B3F5807F08BF002352E8001F42E8003010
:104C60000028F9D1BFF35B8FDCE500BFD81200202C
:104C70004B9B010074890100789B01006029002092
:104C8000BD7500209D9B010060410020BD76002085
:104C9000C29B0100FF870020FF77002060550020A5
:104CA000F8B503780D4616462BB303461A78202A2A
:104CB000184603F10103F9D0EAB128600124002766
:104CC000202113F060FB034638B103F8017B18463E
:104CD00013F8012B202AFAD022B9002345F82430FA
:104CE0002046F8BD45F824000134A642E8D1034827
:104CF000314611F0A1FE0024F2E700BF5D9C0100E7
:104D00002DE9F041451800293ED0B0F1005F3BD3BA
:104D1000C1F1005101F58021814235D31C4EDFF8ED
:104D200074C00127B04299BF4FF0020E4FF00051FE
:104D300061464FF0100E95BF002308234FF48054B6
:104D40004FF40044411AB1FBF4F18E459FBFB1FB13
:104D5000FEF84344DBB20EFB181110311B0107FAB9
:104D600001F103F1804362B1C3F8041903F5106344
:104D7000B0FBF4F004FB00408542D3D80020BDE82E
:104D8000F081C3F80819F3E76FF01500F7E700BFEB
:104D9000FFFF00200000012022EAE27221EAE17117
:104DA00051430C22F8B55043104B42F21075B1FB41
:104DB000F5F419581E1864270D48614391FBF5F16D
:104DC0007943FDF70DFF71680A48614391FBF5F1E6
:104DD0007943FDF705FFB1680748614391FBF5F1A1
:104DE0007943BDE8F840FDF7FBBE00BFBC8B010076
:104DF000188C0100088C0100F88B010010B50346E7
:104E000000681B7902690121994043681B681942B7
:104E10000AD10A490A4840F28D6211F080FE074823
:104E200040F28D6111F072FE136819428368BDE88B
:104E300010400CBF1B69DB68184700BFF5980100E4
:104E40002699010070B503460C46DA880068197986
:104E5000224302F03004302CD0E9013605690AD132
:104E60001849194840F2E23211F059FE40F2E2319D
:104E7000144811F04BFE02F00604042C08D111492D
:104E8000114840F2E93211F04AFE40F2E931EFE711
:104E90001B6801248C401C4208D10A490A484FF47F
:104EA0007F7211F03CFE4FF47F71E1E72B6812F046
:104EB000010F14BF2343A3432B603368BDE8704048
:104EC000184700BFF59801002699010010B5134C52
:104ED0004FF400312046FFF7B5FF2046104CFFF796
:104EE0008DFF4FF400312046FFF7ACFF20460D4CFC
:104EF000FFF784FF4FF400312046FFF7A3FF204661
:104F0000094CFFF77BFF4FF400312046FFF79AFF73
:104F10002046FFF773FF002010BD00BF408C01004A
:104F2000388C0100308C0100288C0100012870B5FC
:104F30002A4E04460D4631D80FF01EFB284B834203
:104F40002CD1284B1B68F4542449002211F8013B52
:104F5000012B03D10132052AF8D1234622490878D2
:104F600098421DD1012B37D81E4B1A601F4B0022CF
:104F70001A601F480021FFF765FF1E480021FFF758
:104F800061FF1D480021FFF75DFF1C480021FFF76E
:104F900059FF1348BDE870400EF062BD7455D3E769
:104FA0000B7010490A60114A0021012B1160E0D9F1
:104FB0000FF0E2FA0A4DA842044609D028460EF046
:104FC0004FFDFFF783FF2846BDE870400FF034B86F
:104FD000FFF77CFF2046F7E770BD00BF09080020FF
:104FE000A01C0020885500200F8800208455002038
:104FF000408C0100388C0100308C0100288C0100AD
:1050000038B59D4D9D4C2B78023B0F2B17D8DFE810
:1050100013F010001A00300040004F0064008600BA
:105020009600A600AC00BA00EA00040116012001B7
:105030002A0142F2107211460020FFF7ADFE90489F
:105040000EF00EFDDFE72268013202F0010248BFD8
:10505000524242F21071042022604A43FFF79CFE44
:105060002368012B14BF4FF46170642011F072FAB1
:10507000C9E72268013202F0010248BF524242F2FF
:105080001071226000204A43FFF786FE4FF4FA7049
:10509000ECE72268013202F0010248BF524242F2BC
:1050A0001071226000204A43FFF776FEC820DDE73A
:1050B0002368013313F0010F42F210710CBF0A464E
:1050C000002200202360FFF767FE2368072BEDD145
:1050D00000210120FFF72AFF95E72268531C002AD0
:1050E000236013DDC3F1CA01CA2B4FF0320342F231
:1050F000107203FB01F108BF00220020FFF74CFEF5
:105100002368CA2B07D100210846E3E7002242F2B8
:1051100010711046F2E7012B4BD1FA20A6E7236865
:10512000013313F0010F42F210710CBF0A46002246
:1051300001202360FFF730FE2368052BC7E72368B3
:10514000013313F0010F42F210710CBF0A46002226
:1051500001202360FFF720FE2368092BB7E742F206
:1051600010724FF4FA61012067E72268013202F001
:10517000010248BF524242F2107322604FF4FA61BA
:105180005A43032080E722684FF47A73013292FB7E
:10519000F3F103FB1122B2F5FA7F2260C8BF9A1A1D
:1051A000C72A08DC1E235A4342F210710320FFF77E
:1051B000F3FD05205AE7B2F5967F06DAC83A1421C6
:1051C00041F2707301FB0232EEE7B2F5C87FABBF6C
:1051D00002EB8202C2EB021202F5EA5202F6AC5274
:1051E000A8BF0C32E0E72368013303F001031A463D
:1051F00042F2107148BF5A42002B22604FF000006B
:105200000CBF0A460022FFF7C7FD2368002B42F2BD
:10521000E45008BF4FF4967028E722680A23013251
:1052200092FBF3F103FB11222260032AD4BF02F0A8
:105230000102002242F210714A43022024E7226850
:105240000A23013292FBF3F103FB11222260052AAB
:10525000ECE722680A23013292FBF3F103FB1122EF
:105260002260072AE2E72268013202F0010248BF09
:1052700052422260DEE700BF0F88002084550020E4
:10528000A01C002070B5164D2C68E10704F007063D
:1052900007D50E200321FFF749FE41F2883011F0B7
:1052A00069F9A20707D50F200321FFF73FFE41F25E
:1052B000883011F05FF9630707D510200321FFF74D
:1052C00035FE41F2883011F055F9002EDCD1032172
:1052D0000120FFF72BFE642011F04CF9D4E700BF4A
:1052E0008C55002070B5404D04462B680E460029B1
:1052F00066D0034308282B6009D850B1441E072C00
:1053000007D8DFE804F01C2C063F060606461028E6
:105310004FD008202C6802F043FA40B1334BC0E96B
:10532000053403230374002343748374C374BDE8FA
:1053300070402F4900234FF4C65212F094B8062053
:1053400002F02EFA38B12B4B436102230374002381
:1053500043748374C37400234FF482520EE006201A
:1053600002F01EFA38B1244B436102230374002378
:1053700043748374C37400234FF484521C4912F0A5
:1053800072F8C6E7062002F00BFA0028E3D01B4BA8
:10539000DAE7062002F004FA38B1194B4361022320
:1053A0000374002343748374C37400234FF4865240
:1053B000E4E7062002F0F4F90028F6D0114BEDE7FF
:1053C00023EA000308202B6002F0EAF938B10E4B03
:1053D0004674C0E90534032303748674C67400233D
:1053E0004FF4C652CAE700BF8C550020F49C010060
:1053F000D4890100899C0100A49C0100B59C010096
:10540000C39C0100D19C0100E19C0100F0B52F4E2E
:10541000377885B0002F56D12D4C2E48A0624FF41E
:105420005A21216001AA12F0AAFB054698B1062074
:1054300002F0B6F930B1284B43610223037447747C
:105440008774C774254900234FF4825212F00BF879
:10545000012005B0F0BD029BA38120460423E38117
:1054600001F0C2FC10F12D0F29D1062002F098F9AD
:1054700030B11B4B43610223037445748574C574BA
:10548000164900234FF4845211F0EDFFA289E389FD
:10549000A06A21685A4312F0DFF968B1062002F0D1
:1054A0007FF90028CED00F4B436102230374002301
:1054B00043748374C374C5E7054801F095FC002864
:1054C000ECD1012333700020C3E700BF1088002017
:1054D000905500206C850100179D0100DC890100BA
:1054E0002F9D01005A9D010070B5044615461E46C9
:1054F000FFF78CFF21460E4833462A4601F048FE4E
:10550000041E14DA082002F04BF940B1094BC0E93F
:10551000053403230374002343748374C374BDE808
:105520007040054900234FF4C25211F09CBF70BD7A
:10553000905500206E9D0100DC89010070B5044685
:105540000D461646FFF762FF21461B4833462A46A2
:1055500011F02FFF041E2DDAA31C24D0082002F026
:105560001FF940B1154BC0E9053403230374002330
:1055700043748374C374124900234FF4C25211F070
:1055800072FF062002F00CF938B10E4B4361022382
:105590000374002343748374C374094900234FF4D4
:1055A000845211F060FF324628460021BDE8704069
:1055B00012F0E1BE70BD00BF90550020909D01002B
:1055C000DC890100B39D010090ED010AD1ED016A73
:1055D00090ED007AD1ED007A20EE260A07EE270A38
:1055E00008B590ED027AD1ED027A07EE270AD1EDE7
:1055F000037A90ED037A07EE270AF7EE007AB0EE11
:10560000C00AB4EEE70AF1EE10FA04DC10F036F945
:1056100030EE000A08BD9FED010AFBE70000000024
:1056200038B52DED028B90ED018A90ED007AD0ED2A
:10563000027A9FED1C0A28EE088A07EE078A0D46BB
:10564000044607EEA78A38EE000A10F049F9F7EE93
:10565000007AC7EE808ADFED147A28EE278A28EEDA
:10566000288AB0EE480A10F0C3F868EE808AB0EEDF
:10567000480A10F079F885ED000AD4ED007A67EE5B
:10568000A87AC5ED017AD4ED017A67EEA87AC5ED66
:10569000027AD4ED027A67EEA87AC5ED037ABDEC02
:1056A000028B38BDBD378635DB0FC93F10B5094CBD
:1056B0000A44914200D110BD11F8013B5840030942
:1056C0000001E35CC0B2434018091B01205CDBB25F
:1056D0005840EEE7C99D010070B589B306683046B1
:1056E00010F0A2FF012201460446304610F064FF8C
:1056F000C30708D413491448AF2211F010FAAF21A0
:10570000104811F003FA2146304610F06BFF2518BF
:1057100029460022304610F04FFF2D1AAC4206D029
:1057200008490948B72211F0FAF9B721E8E72146FC
:10573000304610F05DFF2146BDE8704011F099B889
:1057400070BD00BFD99D010026990100B2F5802FE0
:105750002DE9F0410CD2042A20D83D493D484FF4B0
:10576000077211F0DCF94FF40771394811F0CEF9E6
:105770000823D21ACC1D114424F0070421F007019C
:10578000091B17294FEAD1060AD83149314840F29E
:10579000252211F0C4F940F22521E6E70423E8E7C9
:1057A000002704603146A660E760304610F04FFFE6
:1057B0000121421D8046304610F040FF9200D51D69
:1057C000ED082844B0423AD8B8F1FF3FA2F11002E8
:1057D0003946B8BF3A4604F1100012F0CCFD2A4613
:1057E0003946204610F01CFF3B463A4639462046D3
:1057F00010F0EDFEA6EB050820463946012210F018
:10580000F7FE4246294610F00BFF2B463A46294642
:10581000204610F0DCFE3146204610F001FF4346E2
:105820003A463146204610F0D2FE3146204601224B
:1058300010F0DEFE2946BDE8F04110F0D8BF044963
:10584000044840F23A2211F06AF940F23A218CE71A
:10585000D99D0100269901002DE9F04F91B08407F0
:10586000009302F004030293C2F3C20303F10103A5
:10587000DDF86880039205460E46059340F0E1810D
:10588000041D30B1072909D86FF01B0011B0BDE825
:10589000F08F01F007063444C6F10806009B4FF074
:1058A0000009591E4FF0040A4FF0FF330193CDF861
:1058B00010904F46CB4653460DB100982060059896
:1058C000002800F3D7809C48009A824203D39B486B
:1058D0008242C0F0CF80039AA4EB050E92074FEAF4
:1058E0009E0040F1DE804FF0000CCCE07A285DD8BD
:1058F0004B280ED8472859D829282DD8252852D0EA
:1059000054D820287AD02338D0F1000B4BEB000B71
:1059100074E04C382E2849D8DFE800F07048484839
:1059200048484848484848484B48484848484848F4
:105930004859484B4B595959704B6D487048184B52
:1059400018484883804B48484B48800000204FF05F
:10595000000B4FF0040A38E02A38C0B2012202FAE4
:1059600000F010EA0E0F49D110F0625C2FD110EA5E
:10597000020B43D06046013C5444B4FBFAF40AFBEA
:1059800004F4002D60D0A3EB050CA444B4453FF60D
:105990007BAF002867D1042B48D158F8043B236023
:1059A000043404232AE0019A013A01924FF0000BDB
:1059B00024E011F8010C6C2835D111F8023C0020CC
:1059C0006C2B8346C5D14FF0080A5346D3E708F144
:1059D000070828F007080734F8E802AB24F00704AA
:1059E00035B106982044B0423FF64EAFC4E900AB53
:1059F00008344FF0000B4FF0080A534611F8010F1E
:105A0000002800F0AA80BBF1000F7FF46FAF2528BB
:105A1000F4D1019B013301934FF0010B4FF0040AC5
:105A2000EBE7584693E700208346A4E7082B40F0B5
:105A30008B8008F1070828F00708B8EC027B84ED9A
:105A4000007B08340823D9E768B9042B02D108F198
:105A50000408A5E7082B77D108F1070828F0070804
:105A600008F10808EDE705980138059058F8040B8F
:105A7000009021E7039A900744D5A4EB050E4FEA66
:105A80009E004FF0010CBEF5007F1BD32C492D4822
:105A90004FF41F7211F043F84FF41F71284811F0B2
:105AA00035F80F2F10D8002D38D007F140020DEB3C
:105AB000020C019A0CF8200C0CF8102C0498013000
:105AC00004901EE00F2F08D91D491E4840F2812284
:105AD00011F025F840F28121E0E7D5B107F140024D
:105AE0000DEB020EC0B2019A0EF8200C0EF8102C2D
:105AF000BCF1000FE2D060F07F000EF8200C09F13D
:105B000001090137C5F10802043406924FF6DA7E26
:105B100074E7BCF1000F01D00136F2E7029A0236B9
:105B2000002AEED10098CDE90631FCF789FBDDE9CA
:105B300006310644E5E700BFFC830100BCBA010062
:105B4000FC9D0100269901003F49404840F2C622D1
:105B500010F0E5FF40F2C621A0E7631BB3F5806FAC
:105B600008D33949394840F2D22210F0D8FF40F228
:105B7000D22193E71DB9A6F10804E01886E6029A3F
:105B800028609B082B709DF81030C2B1EB7085F82F
:105B90000290B9F1000F05D008A80022C5F1010C50
:105BA00097420ED1C5F101030DF120084FF0000A14
:105BB00001930DF1300B574512D1601B66E66B70F7
:105BC000E5E710F8013B190608D50CEB040EB645C5
:105BD00003F07F033FF658AE04F8013B0132DFE7E4
:105BE000B9F1000F03D098F90020002A17DB029BBF
:105BF000D3B11AF80B2004F8012B0022019B1819CD
:105C00001044B0423FF640AE98F8000004F8010B93
:105C100000990392204612F0A0FB039A14440AF163
:105C2000010A08F10108C6E798F8002055F822306B
:105C30000093029B45F822300098FCF701FB421CC0
:105C4000DCE76FF00D0021E6FC9D010026990100C4
:105C50002DE9F04F97B000AF8946D7F880B0FA62CF
:105C60003B62044650B9A849A84840F2993210F066
:105C700056FF40F29931A44810F048FFCBF3C0031F
:105C800090F802A07B6141B9457800780AEB80006A
:105C900020444D4517D8A0EB0409E378FB61BAF125
:105CA000000F02D01BF0010F16D1FB6953BBFB6A3A
:105CB0001BB13A6A4946204698474D4628465C370C
:105CC000BD46BDE8F08F461C3046FCF7B9FA0130FE
:105CD000304409F10109DCE7237862687A62FA6AE4
:105CE0009900B96104EB8301002A40F001814D461F
:105CF0000E4601EB0A094FF000084E454CD101EB6E
:105D00000A0610E01BF0020FD1D023789A00BA6186
:105D100062687A62FA6A04EB8301002A77D14D4601
:105D200001EB0A0690461BF0050F0CBF022301236E
:105D3000FB62FB6906EB430A0BF00203BB625645AC
:105D4000BCD016F8021B16F8013C54F82390704B97
:105D5000994502D36F4B994536D37B69002B40D0D0
:105D6000786A10F02EFE00283BD0E9468AB06A46D9
:105D7000694B53617B6AC2E906314FF400731384A7
:105D8000664B42F8103F664800234FF4125101F071
:105D9000ADFE023DCD46D2E716F8013BF96254F85C
:105DA0002300FCF74DFAD7F88430F96A01304BB183
:105DB000D7F8883098453EBFD7F8843023F81800CC
:105DC00008F10108054498E77B6923B1786A10F06F
:105DD000F8FD0028C9D11BF0010F05D1FB6AED1AAF
:105DE000ADE7BB6A002BAAD04846FCF729FAD7F8E2
:105DF000843053B1D7F8883098453FBFD7F8842016
:105E0000431C22F8183008F10108054497E7BAF15D
:105E1000000F73D01BF0040873D0D04607F1480080
:105E2000002652463B61B96212F097FAB96A3B69A3
:105E300001EB0A02BA62FA69F9695200FA60BA6AB9
:105E400002EB41023A610BF00202BA60BA6A3969A8
:105E50008A4267D162787A621BF0020F32440CBF2B
:105E60004FEA580100211BF0010FD2B240F0DF8051
:105E70001BF0040F14BF404600207B616270A070CD
:105E8000E1703A6AB969FB6A20469847051EFFF639
:105E900015AF7B6923707B6A6370FB69E3704146D1
:105EA0003A6AFB6A84F802A007F148009847B0F10B
:105EB0000008C0F2F080BB693A6AA9EB0A01C91A6E
:105EC000FB68C91AD7E90A0398470028C0F2E580A1
:105ED000A84408EB00054FF0000B07F1380AB34562
:105EE000C0F0A78000213A6AFB6A08469847E5E6B9
:105EF000564607F138004FF0000892E7D046564664
:105F000096E7464694E700BFFC9D010026990100F4
:105F1000FC830100BCBA01002A9E010004000001BC
:105F20002C890100BA6A12F8021BBA6212F8015CED
:105F30005B4A54F82500904202D35A4A904217D344
:105F40007A693AB1786A7B6010F03BFD7B68002883
:105F50007FF47CAFBA68002A49D00F2E3DD9524950
:105F6000524840F24D4210F0DAFD40F24D4182E6D7
:105F70007A693AB1786A7B6010F023FD7B6800286B
:105F80007FF464AF1BF0010F0AD00F2E25D94649CC
:105F9000464840F2434210F0C2FD40F243416AE6F7
:105FA0001BF0040F3FF452AFB8F10F0F08D93E4970
:105FB0003E4840F2464210F0B2FD40F246415AE6F9
:105FC00008F1280207F1300008F1010102EB000896
:105FD00008F8105C5FFA81F838E706F1280207F14B
:105FE0003000711C161806F8205CCEB22EE7B8F10E
:105FF0000F0F08D92C492D484FF48A6210F08FFDFD
:106000004FF48A6137E608F1280207F1300C08F1F5
:106010000100944407F1580252FA80F008F1020896
:106020000CF8101C5FFA88F800F8105C0EE70020EE
:1060300023E71BF80A3087F8373054F82390D7F855
:1060400084302BB3D7F888309B4521D2D7F88430E1
:1060500033F81B803A6AFB6A012107F13700984741
:1060600000281ADB0544B8F1000F06D14846FCF7BA
:10607000E7F800F101081FFA88F83A6AFB6A41461E
:1060800048469847002808DB05440BF1010B26E73A
:106090004FF00008DEE7454610E605460EE600BF75
:1060A000FC830100BCBA0100FC9D0100269901009F
:1060B000014B1860704700BF3C06002030B587B028
:1060C0000025CDE903010446009503A9054805957F
:1060D000FCF7D6FDDDE904309842B8BF255407B07F
:1060E00030BD00BF116A0100F0B5094E01680246DB
:1060F0000A2700200B4601311C78355D6D0701D45D
:106100001360F0BD07FB0043A3F13000F2E700BFCE
:106110005AB901002DE9F84F15469A46D378234A1B
:1061200012F803B06F2B81460F460BF0030B2BD0F8
:1061300026D8582B0CBF10260A26DDF828803246B8
:10614000002348463946FCF757F8092A08F1FF387A
:10615000D4B21ED83034B145E4B277F1000788F8E4
:10616000004001D3D04511D82B789B0605D5082EC9
:1061700015D1AB7843F00803AB704046BDE8F88F0B
:1061800003F0F703702BD5E70826D6E781460F46C4
:10619000D5E7BBF1010F0CBF37345734DBE7102EC6
:1061A000EBD1AB7843F01003E6E700BF5AB901002A
:1061B00038B50D4604462022002112F0DCF8EB68C9
:1061C000E361AB68A3612B6823626B6863620022A2
:1061D000A2622A6923B1591E194208BF42F0010286
:1061E00022610122002104F12C0011F0C7FF40B10F
:1061F000044905482F2210F092FC02482F2110F08C
:1062000085FC38BDE49E0100269901002DE9F04F80
:1062100089B0CDE90123436A00268B4204468846B3
:1062200005960796B24652D300F114074FF0400B83
:10623000EFF3118300938BF31288BFF36F8F38460F
:10624000DDF800900EF0BAFB40B946494648882276
:1062500010F065FC8821434810F058FC38460EF0D9
:10626000D1FB079A2AB13146204610F03FFD0023AA
:10627000079306A9204610F05FFC069941450546A4
:106280002ED32268236A13F8221021F0030103F8A9
:10629000221003EB820A21684246204610F070FC6F
:1062A000E3682060984216D0002538460EF094FB33
:1062B00050B389F31188BFF36F8F059929B1A36992
:1062C0000BB12046984700230593002DB0D15046CE
:1062D00009B0BDE8F08F236943F008032361E3E7C9
:1062E00018B1204610F066FCDFE7DDE90132134308
:1062F00030D0039111F070FF039958BB009B4BBB4A
:1063000038460EF069FB40B91649174840F2311281
:1063100010F005FC40F231119DE785F31188BFF3C1
:106320006F8FDDE9012304F12C000CF0EBFD054635
:10633000EFF311898BF31288BFF36F8F38460EF09D
:106340003DFB002881D03846B5FA85F50EF05AFBA2
:106350006D09AAE707AB05AA2046266810F047FC9E
:106360000546A2E70A9F0100269901002DE9F041A8
:106370000446C36908460D46984704F114060746CB
:10638000EFF31188402383F31288BFF36F8F3046F9
:106390000EF014FB40B916491648882210F0BFFBD6
:1063A0008821134810F0B2FB30460EF02BFB2B78FF
:1063B00043F001032B7061683A46204610F0E0FB81
:1063C0006060204610F0ADFC30460EF005FB40B991
:1063D0000749084840F2311210F0A1FB40F2311198
:1063E000DFE788F31188BFF36F8FBDE8F08100BF4E
:1063F0000A9F0100269901002DE9F843044600F1A7
:106400001407EFF31188402383F31288BFF36F8FD3
:1064100038460EF0D3FA054640B930493048882254
:1064200010F07DFB88212D4810F070FB38460EF0EF
:10643000E9FA2369A26813F0080F02D163689A424F
:1064400000D9636A9B1A002B3AD0216A11F82230D6
:1064500013F0030001EB820935D0022803D151F873
:106460002260B60805D1D8071AD4E3694846984790
:106470000646A1683246204610F082FB3146A060F5
:10648000204610F08BFB38460EF0A6FAE8B9134907
:10649000134840F2311210F042FB40F23111C2E7D2
:1064A00043F0020301F822304846E369A5689847A3
:1064B00029460246204610F063FB0025A060E2E773
:1064C0001D46A946DFE70546FBE788F31188BFF3C1
:1064D0006F8F002D95D14846BDE8F8830A9F0100D3
:1064E000269901002DE9F0410446C36908460D468E
:1064F000984704F114070646EFF31188402383F30D
:106500001288BFF36F8F38460EF058FA40B923490E
:106510002348882210F003FB8821204810F0F6FA67
:1065200038460EF06FFA2B786FF300032B70236957
:106530009B0705D5E268236A03EB82039D421DD1C8
:106540002B786FF341032B70D4E90231994204D1C7
:106550003246204610F014FBA0603146204610F071
:106560001DFB38460EF038FA68B90C490C4840F269
:10657000311210F0D4FA40F23111CEE72B6866F3F5
:106580009F032B60EDE788F31188BFF36F8F04F151
:106590002C00BDE8F0410CF051BC00BF0A9F010087
:1065A0002699010070B5044600F11405EFF3118639
:1065B000402383F31288BFF36F8F28460EF0FEF955
:1065C00040B916491648882210F0A9FA88211348C4
:1065D00010F09CFA28460EF015FA2369A06813F013
:1065E000080F02D1636898420ED9646A241A2846BB
:1065F0000EF0F2F950B90949094840F2311210F091
:106600008EFA40F23111E2E71C1AF0E786F31188A6
:10661000BFF36F8F201E18BF012070BD0A9F0100BD
:106620002699010008B50446EFF31183402383F354
:106630001288BFF36F8F08F07DFB204604F08AFCC0
:10664000024810F0F9F911F035F9FCE7379F010025
:106650002DE9F84F04460846A38B1907164612D4B5
:10666000022803F0070162D1204610F082FB88B1B6
:106670000138042800F22581DFE810F059002301D9
:106680007E00C800F50001280CBF43F0100143F064
:106690002001A18304F114000EF09EF9002800F0FF
:1066A000AB8086F31188BFF36F8FBDE8F88F03F0DE
:1066B0000702501F01281ED80020062A2768C4E9B7
:1066C000000014D13A4603E0E08B0130E083126809
:1066D000002AF9D123F0070343F00202A2832046E7
:1066E00010F047FB90B342F02002A2832EE023F08B
:1066F00007039AB2F2E7042A33D123F007039AB2D0
:10670000A283204610F035FB10B142F02002A28394
:10671000A38B03F00709894540F0DC80A18BCA06F2
:1067200040F1218121F01003A38301F00701D4F887
:106730001880A38BB8F1000FB9DA0022276823F084
:106740000703C4E9002243F00103A383A38B03F0F2
:106750000709894540F0BF80002FDFD00025AA46F9
:1067600040E08549854840F21B1210F0D8F940F20C
:106770001B11814810F0CAF941B17F497F484FF49D
:10678000AB7210F0CCF94FF4AB71F2E7236843B968
:1067900079497A4840F2571210F0C1F940F2571186
:1067A000E7E723691D6845B9734974484FF4AD7232
:1067B00010F0B5F94FF4AD71DBE7A38B23F00703BD
:1067C00043F006039BB2A3830F4688464FF00609A9
:1067D000A268002A40F08180002F40F08180002DC7
:1067E0009CD0BA4643F0080304F1140BA383584627
:1067F0000EF0F2F8002875D16149604840F231127C
:1068000010F08DF940F231115D48B3E7022908D04C
:1068100059495A4840F25D1210F081F940F25D1179
:10682000A7E7E78B47B1544954484FF4AF7210F0D3
:1068300076F94FF4AF719CE723695D6845B94E491D
:106840004E4840F2611210F06AF940F2611190E78F
:10685000A38B23F0070343F004039BB2A383B84642
:106860004FF00409B4E7012908D0434943484FF4E5
:10687000B27210F054F94FF4B2717AE7236843B959
:106880003D493E4840F2651210F049F940F2651169
:106890006FE723699D6845B9374938484FF4B472AA
:1068A00010F03DF94FF4B47163E7A38B23F00703B5
:1068B00043F005039BB20027A383B8464FF00509B8
:1068C00086E72D492D4840F26B1210F028F940F26E
:1068D0006B114EE7002700257AE74FF0010A81E7A8
:1068E00092467FE786F31188BFF36F8FBAF1000FEE
:1068F00016D147BB15B123492046A847EFF31186AF
:10690000402383F31288BFF36F8F58460EF056F87A
:1069100008BB1B491948882210F001F9882173E748
:10692000A1680029E5D00E680029E2D0D1F804A0C2
:1069300043464A462046D0471EB1336831461E467C
:10694000F2E73346FAE7394643464A4620463F686F
:1069500010F03BFACDE758460EF054F8A38B23F025
:106960000803A383DAE68B067FF594AE21F02003BB
:10697000A38301F0070177E6609F010026990100DB
:106980000A9F010089690000F8B504460D4600F130
:106990001406EFF31187402383F31288BFF36F8F40
:1069A00030460EF00BF840B909490A48882210F029
:1069B000B6F80748882110F0A9F830460EF022F802
:1069C000A5613A4620460121BDE8F840FFF740BEE8
:1069D0000A9F0100269901002DE9F04704460F4661
:1069E00010F0E3F9051E5DDB04F11409EFF3118AE1
:1069F000402383F31288BFF36F8F48460DF0DEFF0C
:106A0000804638B933493448882210F088F8882104
:106A100030483CE048460DF0F5FFE38BA68B4FF67F
:106A2000FF72934206F007063FD0022E10D10133C9
:106A3000E383354648460DF0CFFF00283BD125497A
:106A4000254840F2311210F06AF840F23111DFE7C8
:106A5000062E13D8DFE806F0092C121209040900EB
:106A60006FF085054FF00008E4E700233B606368A2
:106A70007BB9C4E900777EB13546F3E7174916487C
:106A80004FF4E47210F04BF814484FF4E47110F036
:106A90003DF81F606760EEE7524602212046FFF78F
:106AA000D7FD35462846BDE8F0876FF00A05D9E7DF
:106AB0006FF00405D6E78AF31188BFF36F8FB8F142
:106AC000000FEFD0002332463946204610F07DF902
:106AD000E8E700BF0A9F010026990100609F0100BE
